{
  "contractName": "TokengatedCommunity",
  "abi": [
    {
      "inputs": [
        {
          "internalType": "address",
          "name": "_fanToken",
          "type": "address"
        },
        {
          "internalType": "uint256",
          "name": "_entryTokenAmount",
          "type": "uint256"
        }
      ],
      "stateMutability": "nonpayable",
      "type": "constructor"
    },
    {
      "anonymous": false,
      "inputs": [
        {
          "indexed": true,
          "internalType": "address",
          "name": "member",
          "type": "address"
        }
      ],
      "name": "MemberJoined",
      "type": "event"
    },
    {
      "anonymous": false,
      "inputs": [
        {
          "indexed": true,
          "internalType": "address",
          "name": "previousOwner",
          "type": "address"
        },
        {
          "indexed": true,
          "internalType": "address",
          "name": "newOwner",
          "type": "address"
        }
      ],
      "name": "OwnershipTransferred",
      "type": "event"
    },
    {
      "inputs": [],
      "name": "entryTokenAmount",
      "outputs": [
        {
          "internalType": "uint256",
          "name": "",
          "type": "uint256"
        }
      ],
      "stateMutability": "view",
      "type": "function"
    },
    {
      "inputs": [],
      "name": "fanToken",
      "outputs": [
        {
          "internalType": "contract IERC20",
          "name": "",
          "type": "address"
        }
      ],
      "stateMutability": "view",
      "type": "function"
    },
    {
      "inputs": [
        {
          "internalType": "address",
          "name": "",
          "type": "address"
        }
      ],
      "name": "members",
      "outputs": [
        {
          "internalType": "bool",
          "name": "",
          "type": "bool"
        }
      ],
      "stateMutability": "view",
      "type": "function"
    },
    {
      "inputs": [],
      "name": "owner",
      "outputs": [
        {
          "internalType": "address",
          "name": "",
          "type": "address"
        }
      ],
      "stateMutability": "view",
      "type": "function"
    },
    {
      "inputs": [],
      "name": "renounceOwnership",
      "outputs": [],
      "stateMutability": "nonpayable",
      "type": "function"
    },
    {
      "inputs": [
        {
          "internalType": "address",
          "name": "newOwner",
          "type": "address"
        }
      ],
      "name": "transferOwnership",
      "outputs": [],
      "stateMutability": "nonpayable",
      "type": "function"
    },
    {
      "inputs": [],
      "name": "joinCommunity",
      "outputs": [],
      "stateMutability": "nonpayable",
      "type": "function"
    },
    {
      "inputs": [
        {
          "internalType": "uint256",
          "name": "_newEntryTokenAmount",
          "type": "uint256"
        }
      ],
      "name": "setEntryTokenAmount",
      "outputs": [],
      "stateMutability": "nonpayable",
      "type": "function"
    },
    {
      "inputs": [
        {
          "internalType": "address",
          "name": "_user",
          "type": "address"
        }
      ],
      "name": "isMember",
      "outputs": [
        {
          "internalType": "bool",
          "name": "",
          "type": "bool"
        }
      ],
      "stateMutability": "view",
      "type": "function"
    }
  ],
  "bytecode": "0x608060405234801561001057600080fd5b506040516105b33803806105b383398101604081905261002f916100b1565b61003833610061565b600180546001600160a01b0319166001600160a01b0393909316929092179091556002556100eb565b600080546001600160a01b038381166001600160a01b0319831681178455604051919092169283917f8be0079c531659141344cd1fd0a4f28419497f9722a3daafe3b4186f6b6457e09190a35050565b600080604083850312156100c457600080fd5b82516001600160a01b03811681146100db57600080fd5b6020939093015192949293505050565b6104b9806100fa6000396000f3fe608060405234801561001057600080fd5b50600436106100925760003560e01c80638da5cb5b116100665780638da5cb5b1461010c578063929e11ad1461011d5780639a94b79114610134578063a230c52414610147578063f2fde38b1461017357600080fd5b8062b16fee1461009757806308ae4b0c146100a1578063715018a6146100d957806375daa3de146100e1575b600080fd5b61009f610186565b005b6100c46100af366004610421565b60036020526000908152604090205460ff1681565b60405190151581526020015b60405180910390f35b61009f6102dd565b6001546100f4906001600160a01b031681565b6040516001600160a01b0390911681526020016100d0565b6000546001600160a01b03166100f4565b61012660025481565b6040519081526020016100d0565b61009f610142366004610451565b6102f1565b6100c4610155366004610421565b6001600160a01b031660009081526003602052604090205460ff1690565b61009f610181366004610421565b6102fe565b3360009081526003602052604090205460ff16156101de5760405162461bcd60e51b815260206004820152601060248201526f20b63932b0b23c90309036b2b6b132b960811b60448201526064015b60405180910390fd5b6002546001546040516370a0823160e01b81523360048201526001600160a01b03909116906370a0823190602401602060405180830381865afa158015610229573d6000803e3d6000fd5b505050506040513d601f19601f8201168201806040525081019061024d919061046a565b101561029b5760405162461bcd60e51b815260206004820152601a60248201527f496e73756666696369656e7420746f6b656e2062616c616e636500000000000060448201526064016101d5565b33600081815260036020526040808220805460ff19166001179055517f0abf3b3f643594d958297062a019458e27d7766629590ac621aa1000fa1298ab9190a2565b6102e5610377565b6102ef60006103d1565b565b6102f9610377565b600255565b610306610377565b6001600160a01b03811661036b5760405162461bcd60e51b815260206004820152602660248201527f4f776e61626c653a206e6577206f776e657220697320746865207a65726f206160448201526564647265737360d01b60648201526084016101d5565b610374816103d1565b50565b6000546001600160a01b031633146102ef5760405162461bcd60e51b815260206004820181905260248201527f4f776e61626c653a2063616c6c6572206973206e6f7420746865206f776e657260448201526064016101d5565b600080546001600160a01b038381166001600160a01b0319831681178455604051919092169283917f8be0079c531659141344cd1fd0a4f28419497f9722a3daafe3b4186f6b6457e09190a35050565b60006020828403121561043357600080fd5b81356001600160a01b038116811461044a57600080fd5b9392505050565b60006020828403121561046357600080fd5b5035919050565b60006020828403121561047c57600080fd5b505191905056fea26469706673582212204b7831b6831dca27a7e774bd17474895a908aabf200ec41c038aea3cc9251d6364736f6c63430008130033",
  "immutableReferences": {},
  "source": "// SPDX-License-Identifier: MIT\npragma solidity ^0.8.0;\n\nimport \"@openzeppelin/contracts/token/ERC20/IERC20.sol\";\nimport \"@openzeppelin/contracts/access/Ownable.sol\";\n\ncontract TokengatedCommunity is Ownable {\n    IERC20 public fanToken;\n    uint256 public entryTokenAmount;\n\n    mapping(address => bool) public members;\n\n    event MemberJoined(address indexed member);\n\n    constructor(address _fanToken, uint256 _entryTokenAmount) {\n        fanToken = IERC20(_fanToken);\n        entryTokenAmount = _entryTokenAmount;\n    }\n\n    function joinCommunity() external {\n        require(!members[msg.sender], \"Already a member\");\n        require(fanToken.balanceOf(msg.sender) >= entryTokenAmount, \"Insufficient token balance\");\n\n        members[msg.sender] = true;\n        emit MemberJoined(msg.sender);\n    }\n\n    function setEntryTokenAmount(uint256 _newEntryTokenAmount) external onlyOwner {\n        entryTokenAmount = _newEntryTokenAmount;\n    }\n\n    function isMember(address _user) external view returns (bool) {\n        return members[_user];\n    }\n}",
  "sourcePath": "/Users/patrickskinner/dev/quicknode-tw/tokengated-community/contracts/TokengatedCommunity.sol",
  "compiler": {
    "name": "solc",
    "version": "0.8.19+commit.7dd6d404.Emscripten.clang"
  },
  "schemaVersion": "3.4.13",
  "updatedAt": "2023-05-02T21:55:14.362Z",
  "devdoc": {
    "kind": "dev",
    "methods": {
      "owner()": {
        "details": "Returns the address of the current owner."
      },
      "renounceOwnership()": {
        "details": "Leaves the contract without owner. It will not be possible to call `onlyOwner` functions anymore. Can only be called by the current owner. NOTE: Renouncing ownership will leave the contract without an owner, thereby removing any functionality that is only available to the owner."
      },
      "transferOwnership(address)": {
        "details": "Transfers ownership of the contract to a new account (`newOwner`). Can only be called by the current owner."
      }
    },
    "version": 1
  },
  "userdoc": {
    "kind": "user",
    "methods": {},
    "version": 1
  }
}